:100000000C94BC010C9403020C9403020C940302A4
:100010000C9403020C9403020C9403020C9403024C
:100020000C9403020C9403020C94CC1B0C949F1CA4
:100030000C94E0120C9403020C9403020C9403023F
:100040000C9403020C9403020C9403020C9403021C
:100050000C9403020C9441130C9403020C940302BD
:100060000C9403020C9403020C9403020C940302FC
:100070000C9403020C9403020C9403020C940302EC
:100080000C9403020C9403020C9403020C940302DC
:100090000C9403020C9403020C9403020C940302CC
:1000A0000C9403020C9403020C9403021E001F0024
:1000B0002000210022002300240025003800010038
:1000C0000100010001000100010001000100010028
:1000D0000100010001000100010001000100010018
:1000E0000100010001000100010001000100010008
:1000F00001000100010001000100010001000100F8
:1001000001000100010001000100010001000100E7
:1001100001000100010001000100010001000100D7
:1001200001000100010001000100010001000100C7
:1001300001000100010001000100010001000100B7
:1001400001000100010001000100010001000100A7
:100150000100010001000100010001000100010097
:100160000100010001000100010001000100010087
:100170000100010001000100010001000100010077
:100180000100010001000100010001000100010067
:100190000100010001000100010001000100010057
:1001A0000100010001000100010001000100010047
:1001B0000100010001000100010001000100010037
:1001C00001000100010001000100010012036B00A9
:1001D0006500790062006F00610072006400000039
:1001E000160371006D006B006200750069006C0001
:1001F00064006500720000000403090409026D0038
:10020000040100A0FA090400000103010100092112
:10021000110100012240000705810308000A0904BA
:1002200001000103010200092111010001224D001A
:100230000705820308000A09040200010300000008
:100240000921110100012236000705830308000A75
:10025000090403000103000000092111010001222B
:10026000390007058403200001120110010000007D
:1002700008EDFE606001000102000105010906A110
:1002800001050719E029E715002501950875018189
:100290000205081901290595057501910295017559
:1002A0000391010507190029F71500250195F87537
:1002B000018102C005010980A10185021601002605
:1002C00003001A81002A8300751095018100C00582
:1002D0000C0901A1018503160100269C021A0100E8
:1002E0002A9C02751095018100C005010902A10137
:1002F0000901A10005091901290515002501950528
:1003000075018102950175038101050109300931EB
:100310001581257F95027508810609381581257F8D
:10032000950175088106050C0A38021581257F950F
:100330000175088106C0C005010906A1010507195C
:10034000E029E715002501950875018102950175E1
:100350000881010508190129059505750191029586
:1003600001750391010507190029FF150026FF00FB
:10037000950675088100C00011241FBECFEFDAE09A
:10038000DEBFCDBF04B603FE27C08091020290916C
:100390000302A0910402B09105028730904BA74060
:1003A000B04BD1F410920202109203021092040298
:1003B0001092050214BE84B7877F84BF0FB6F894ED
:1003C000A895809160008861809360001092600021
:1003D0000FBEE0E0F8E3099511E0A0E0B1E0E8E14C
:1003E000F0E402C005900D92A033B107D9F722E0E6
:1003F000A0E3B1E001C01D92A230B207E1F70E9474
:1004000022190C94DE1F0C94000090E080E0089507
:100410000895089581E00895089581E008950C9469
:100420000A020E94370B2FEF84E39CE021508040AA
:100430009040E1F700C000000C946413EF92FF922B
:100440000F931F93CF93DF938C01FC01E080F18029
:1004500080915201811140C082818823C1F1C7017E
:100460000E94BC10C82F682FC7010E946510B701F9
:100470008C2F0E945603EC01B8010E940F028823C2
:1004800009F44BC0B801CE010E946105882309F42C
:1004900044C0C531F0E7DF0720F5C23080E7D80758
:1004A00008F04DC0C115E0E7DE0791F1C130D0473B
:1004B000E1F181E08093320180933301C801DF9143
:1004C000CF911F910F91FF90EF900C940D02C701F7
:1004D0000E949310C82FCBCFC7010E94BC10B70158
:1004E000C8CFCC3380E7D80709F49BC0CD33D047C1
:1004F00001F7F8018281882309F4BAC01092330110
:100500000E941013909331018093300180E296C0D5
:10051000F801828181110E94110280E0DF91CF9168
:100520001F910F91FF90EF900895F8018281882329
:10053000A1F38091C20181608093C201EECFF801E6
:100540008281882309F4BACF0E947712811102C0F8
:100550000E945D120E94941290E09093F4018093A7
:10056000F301FE01E350F0478091F3018160E23135
:10057000F10538F4E052F04E0C948E1F8091F30197
:1005800082608093F3018091F3010E9498120E948F
:10059000370BC3CF8091F3018460F3CF8091F301D7
:1005A0008860EFCF8091F3018061EBCF8091F30100
:1005B0008062E7CF8091F3018064E3CF8091F30103
:1005C0008068DFCF8091F3018C60DBCF8091F301F5
:1005D0008E7FD7CF8091F3018D7FD3CF8091F301B0
:1005E0008B7FCFCF8091F301877FCBCF8091F301B9
:1005F0008F7EC7CF8091F3018F7DC3CF8091F301B0
:100600008F7BBFCF8091F3018F77BBCF8091F301B8
:10061000837FB7CF9091F301892F97FB87F980589B
:10062000B0CFF8018281882361F0109232010E94DC
:100630001013909331018093300182E00E949C0856
:100640006CCF8091320181110FC080913001909167
:1006500031010E941C13883C910530F486E20E940F
:10066000710786E20E944D0882E00E94A30855CFE0
:100670008091330181110FC080913001909131013F
:100680000E941C13883C910530F487E20E94710798
:1006900087E20E944D0880E2E8CF0C94B0050C94EC
:1006A000B2050C940C020C9451030895E62F272FE9
:1006B000280F3327331FC90129E0289FB001299F44
:1006C000700D1124E60FF72FF11DEE0FFF1FE455FB
:1006D000FF4F859194910895FC01EE0FFF1FE453A5
:1006E000FE4F8591949108950E9456030E94E5045F
:1006F0009C01811540E4940708F097C0211580E320
:10070000380708F0FAC0203E310508F074C0203CDC
:10071000310508F0E5C0283A310588F4253A31055D
:1007200008F0E2C02130310509F477C0C90104970F
:10073000813A910508F471C030E020E06EC0C90133
:10074000885A91094597C0F7283A310509F4FEC047
:10075000293A310509F4FDC02A3A310509F4FCC0F3
:100760002B3A310509F4FBC02C3A310509F4FAC0E3
:100770002B3B310509F4F9C02C3B310509F4F8C0D5
:100780002D3A310509F4F7C0203B310509F4F6C0D4
:100790002E3A310509F4F5C02F3A310509F4F4C0B9
:1007A000213B310509F4F3C0223B310509F4F2C0C5
:1007B000233B310509F4F1C0243B310509F4F0C0B5
:1007C000253B310509F4EFC0263B310509F4EEC0A5
:1007D000273B310509F4EDC0283B310509F4ECC095
:1007E000293B310509F4EBC02A3B310509F4EAC085
:1007F00020E034E412C0211590E2390780F42F3F45
:10080000310509F050F4283E310538F0C901805F08
:1008100091093065409708F08FCFC9010895C9014B
:100820009F700E946C039C01F8CF8115944508F0DD
:1008300041C0211583E5380708F06AC0211592E50B
:10084000390738F5211541E5340708F05CC021155A
:1008500080E5380708F454C0C90134E096958795BF
:100860003A95E1F78370422F46954695437090E2A2
:10087000499FA0011124582B822F837021E030E082
:1008800002C0220F331F8A95E2F7242B352B3C68D8
:10089000C4CFC9018370992741E050E002C0440FE2
:1008A000551F8A95E2F72695269580E2289F9001AC
:1008B0001124EBCF211596E5390748F4922F8827AC
:1008C00021153545C8F59C01246F306AA6CFC901B2
:1008D00090563F708115904108F02ECF30629DCF29
:1008E000C901805C91099DCF253A310549F1263A2D
:1008F000310549F522E830E490CF3327306C8DCFB5
:100900003F70306A8ACF322F2227216F306A85CF1D
:10091000C9018370992741E050E002C0440F551F80
:100920008A95E2F72695269580E2289F900111246A
:10093000242B352B3A6871CF88279F719C01CECF2D
:1009400021E830E46ACF23E830E467CF22EE34E4D4
:1009500064CF29EE34E461CF2AEE34E45ECF25EB98
:1009600034E45BCF26EB34E458CF23EB34E455CFAB
:1009700024EB34E452CF27EB34E44FCF2CEC34E4B7
:100980004CCF2DEC34E449CF23E835E446CF2AE8B8
:1009900035E443CF22E935E440CF24E935E43DCFC7
:1009A00021E236E43ACF23E236E437CF24E236E4DC
:1009B00034CF25E236E431CF26E236E42ECF27E2EB
:1009C00036E42BCF2AE236E428CF803E910581F130
:1009D000C8F48133910509F462C048F48932910565
:1009E00009F456C08A32910509F460C0089589332C
:1009F0009105B9F082389105A1F08533910509F48C
:100A000040C00895863E910561F138F4823E91051B
:100A1000B1F0833E9105E1F00895873E910551F1D3
:100A200008952091F3012370D9F080EE90E00895AD
:100A30002091F30120FF14C089E390E008952091F4
:100A4000F30122FF0DC024FD09C083EE90E008955C
:100A50002091F30122FD31C024FF02C090E080E02C
:100A600008952091F30123FFFBCF24FDF7CF87EEFC
:100A700090E008952091F30123FFEECF86EE90E001
:100A800008952091F30125FFEBCF89E290E00895CE
:100A90002091F30125FFE4CF85E390E008952091B4
:100AA000F30126FFDDCF8AE290E008952091F30163
:100AB00026FFD6CF81E390E0089582EE90E008957E
:100AC00008950F931F93CF938C01FB0182818111B5
:100AD00006C0C1E08C2FCF911F910F910895C09156
:100AE0004101C11125C00531104799F70E946005E9
:100AF00081E0809341010E94101390934001809304
:100B00003F0110923401109236011092350110927B
:100B100038011092370110923A0110923901109267
:100B20003C0110923B0110923E0110923D01D2CF48
:100B300080913F01909140010E941C13883C9105D7
:100B400040F680913401E82FF0E0EE0FFF1FEB5CE0
:100B5000FE4F118300838F5F80933401C0E0BACFD2
:100B60000C9408020C940902CF93DF9385B7806838
:100B700085BF85B7806885BF84988C9AA3E1B1E072
:100B80004CE151E0C1E0D0E08D91E82FE295EF70AB
:100B9000F0E061A18F709E0101C0220F8A95EAF7F3
:100BA000922F9095962391A382A1822B82A34A171C
:100BB0005B0751F7109245011092440110924301D6
:100BC00010924201DF91CF910C944D03CF93DF93AC
:100BD000C0914201D0914301109243011092420111
:100BE000849A8C9880EA8A95F1F7A3E1B1E090E0CD
:100BF00080E061E070E02D91E22FE295EF70F0E08F
:100C000030A140914201509143012F70FB0101C07E
:100C1000EE0F2A95EAF7232F2E2309F03FC09B0100
:100C2000082E02C0220F331F0A94E2F7242B352B23
:100C30003093430120934201019689309105D9F602
:100C400084988C9A8091420190914301C817D907EA
:100C500049F081E0809346010E941013909348016F
:100C60008093470180914601882391F0809147014C
:100C7000909148010E941C13069750F08091420108
:100C80009091430190934501809344011092460155
:100C90000E944F0381E0DF91CF91089530E020E082
:100CA000C5CFE82FF0E0EE0FFF1FEC5BFE4F808119
:100CB00091810895089590934E0180934D01089578
:100CC000E0914D01F0914E01309721F00190F081BB
:100CD000E02D099480E00895E0914D01F0914E01DE
:100CE000309721F00280F381E02D09940895E0917E
:100CF0004D01F0914E01309721F00480F581E02DF7
:100D00000994089520914B0130914C01281739071F
:100D100071F090934C0180934B01E0914D01F09163
:100D20004E01309721F00680F781E02D0994089557
:100D30002091490130914A012817390771F09093A9
:100D40004A0180934901E0914D01F0914E013097A5
:100D500021F00084F185E02D0994089508950C9404
:100D6000AE060E9407130E94B4050C94CA13CF92DA
:100D7000DF92EF92FF920F931F93CF93DF9300D0F8
:100D800000D00F92CDB7DEB70E94E60580E00E944A
:100D900051068C0180915001909151016C01C02647
:100DA000D1268017910709F454C08091C20181FDBA
:100DB0000E945A0690E080E021E030E07901082EA0
:100DC00002C0EE0CFF1C0A94E2F7A7014C215D2142
:100DD000452BD1F189831A820E211F2181E0012B3D
:100DE00009F480E08B830E9410138160782F9D832B
:100DF0008C8349815A816B818D810E944807809143
:100E00005001909151018E259F259093510180931F
:100E100050010E9477160E94600690914F01891739
:100E200049F10E94600680934F010F900F900F9040
:100E30000F900F90DF91CF911F910F91FF90EF9046
:100E4000DF90CF900C94530301968930910509F0FF
:100E5000B5CF8FEF89838A831B820E941013816034
:100E6000782F9D838C8349815A816B818D810E946B
:100E70004807CFCF0F900F900F900F900F90DF91FA
:100E8000CF911F910F91FF90EF90DF90CF90089539
:100E9000CF93DF93CDB7DEB72B970FB6F894DEBFB5
:100EA0000FBECDBF4F83588769877A878B871E8295
:100EB00085E0FE013796DE01119601900D928A952C
:100EC000E1F749815A816B817C818D819E812B96CE
:100ED0000FB6F894DEBF0FBECDBFDF91CF910C945B
:100EE000BF0D882309F4D8C0823871F40E946006CF
:100EF00081FDD2C089E30E9464110E942E1289E311
:100F00000E94A1110C942E12833859F40E9460069D
:100F100080FDC2C083E50E9464110E942E1283E509
:100F2000EFCF843859F40E94600682FDB5C087E493
:100F30000E9464110E942E1287E4E2CF9CEF980F6A
:100F4000913A18F40E946411DDCF90E2980F983026
:100F500050F4877091E001C0990F8A95EAF7892FC4
:100F60000E94E511CFCF9BE5980F933070F4853A3E
:100F700031F0863A39F083E890E00C94820681E8FB
:100F800090E0FBCF82E890E0F8CF98E5980F95319C
:100F900008F082C0883A09F440C0893A09F440C098
:100FA0008A3A09F440C08B3A09F440C08C3A09F4FB
:100FB00040C08B3B09F440C08C3B09F440C08D3AE3
:100FC00009F440C0803B09F440C08E3A09F440C0A7
:100FD0008F3A09F440C0813B09F440C0823B09F4D8
:100FE00040C0833B09F440C0843B09F440C0853BCA
:100FF00009F440C0863B09F440C0873B09F440C077
:10100000883B09F440C0893B09F440C08A3B09F49D
:1010100040C090E080E00C94980682EE90E0FBCF18
:1010200089EE90E0F8CF8AEE90E0F5CF85EB90E086
:10103000F2CF86EB90E0EFCF83EB90E0ECCF84EB48
:1010400090E0E9CF87EB90E0E6CF8CEC90E0E3CF47
:101050008DEC90E0E0CF83E891E0DDCF8AE891E08D
:10106000DACF82E991E0D7CF84E991E0D4CF81E271
:1010700092E0D1CF83E292E0CECF84E292E0CBCF78
:1010800085E292E0C8CF86E292E0C5CF87E292E0A7
:10109000C2CF8AE292E0BFCF0895882309F44BC003
:1010A000823871F40E94600681FF45C089E30E9486
:1010B00064110E942E1289E30E94A1110C942E1239
:1010C000833859F40E94600680FF35C083E50E9492
:1010D00064110E942E1283E5EFCF843859F40E94E8
:1010E000600682FF28C087E40E9464110E942E12CD
:1010F00087E4E2CF9CEF980F913AF0F290E2980FDC
:10110000983050F4877091E001C0990F8A95EAF702
:10111000892F0E94EB11D2CF9BE5980F933020F4DA
:1011200090E080E00C948206885A853120F490E0AB
:1011300080E00C9498060895882321F00E94E51120
:101140000C942E120895882321F00E94EB110C9428
:101150002E1208958F929F92AF92BF92DF92EF92DC
:10116000FF920F931F93CF93DF9300D000D00F9285
:10117000CDB7DEB77C016D837983FC0105810295D3
:101180000F70128111110E9404120E945D11D82E5D
:10119000882371F01123A1F08D81805E883080F06A
:1011A00082E00E9447110E945D1191E0D82ED9265D
:1011B000E981E295EF70F0E0EE50F04E0C948E1F56
:1011C000D12CF6CF09810F70F981F07F11F00295D3
:1011D000007F1123B1F0002361F08D81805E8830A3
:1011E00018F02D81211109C0802F0E94E5110E9465
:1011F0002E128D810E94710715C0802F0E94F6115A
:10120000F6CF8D810E944D08002361F08D81805EB4
:10121000883018F03D81311129C0802F0E94EB11D8
:101220000E942E12DD2009F4D3C10E943A1180FDE4
:10123000CFC1F70112820E9434110E947D0FC701B5
:101240000E94F90A0E9434110F900F900F900F9096
:101250000F90DF91CF911F910F91FF90EF90DF9052
:10126000BF90AF909F908F900C949F0F802F0E9403
:10127000FC11D6CF49814F70B42E5981507F503226
:1012800019F0B29480EFB8228D81882369F0813003
:1012900029F1112369F1002359F0F701858180FFBD
:1012A000A8CF8F70858304C0112361F0011104C0A1
:1012B0008B2D0E949C08B6CF8B2D0130D1F70E9458
:1012C0001812B0CF011106C00E941B128B2D0E9474
:1012D000A308A8CF013009F4A5CFF6CF112321F040
:1012E000063008F09FCFE4CF053008F09BCFEECF5B
:1012F000002361F38D810E944D0894CF89818695EA
:101300008695837069F0813009F08CCF8D81998149
:101310009370111102C090E080E00E94980682CF85
:101320008D8199819370111102C090E080E00E943C
:10133000820678CF8D81112329F00E9485150E94A5
:101340006C1670CF0E94ED15FACF8981837009F079
:101350005FC0111167CF2D81229526952770220F2E
:10136000220F8D818F7090E0B0E0A0E04C015D0114
:10137000022E04C0880C991CAA1CBB1C0A94D2F72C
:10138000FD8160E070E0CB01F4FF0FC06FE070E022
:1013900080E090E004C0660F771F881F991F2A9590
:1013A000D2F7609570958095909529812695269520
:1013B00023702D832230B1F0233019F19B01AC0151
:1013C000282939294A295B2929833A834B835C835D
:1013D0003D8169817A818B819C813130B1F00E949D
:1013E0000A0F20CF9B01AC01282939294A295B2902
:1013F00029833A834B835C83CA01B9010E94340F6D
:1014000011CF0E940A0FC501B4010E94E00E0ACF5D
:101410008695112311F089818170882309F402CF08
:101420002D81229526952770220F220F8D818F7096
:1014300090E0B0E0A0E04C015D01022E04C0880CF9
:10144000991CAA1CBB1C0A94D2F73D8160E070E095
:10145000CB0134FF0FC06FE070E080E090E004C08B
:10146000660F771F881F991F2A95D2F76095709590
:101470008095909549814695469543704D834230BD
:10148000B1F0433019F19B01AC01282939294A29CF
:101490005B2929833A834B835C833D8169817A810F
:1014A0008B819C813130B1F00E941010BBCE9B012A
:1014B000AC01282939294A295B2929833A834B839E
:1014C0005C83CA01B9010E943A10ACCE0E94101090
:1014D000C501B4010E94E60FA5CE3D81323F09F45B
:1014E00047C080F4303F79F1313FD9F1832F805EDE
:1014F0008031D0F0112309F456C001117ACE8981D0
:101500008F7133C04D81433FD1F1443F99F711238F
:1015100009F43FC089818F7189830E947D0F63E048
:1015200089810E943E117ECE5D815F705D838981DD
:101530008F71112321F00E947D0F8D81BACE0E9400
:101540009F0F8D81C4CE112341F0053008F06ACE83
:1015500089818F710E94C40F65CE063008F062CE7B
:10156000F7CF89818F71112339F00E947D0F5ACEF8
:1015700089818F711123C9F30E949F0F53CE1123CC
:1015800029F089818F710E94680F4CCE0E945E0FF6
:1015900049CE81E00E944711023008F443CE82E038
:1015A0000E9447113FCE0111A5CE89818F71E4CFF2
:1015B00049814F706D81C7010E9405020E94590E3A
:1015C00031CE49814F706D81C7010E9455032ACEEB
:1015D0000F900F900F900F900F90DF91CF911F9170
:1015E0000F91FF90EF90DF90BF90AF909F908F9002
:1015F00008950F931F93CF93DF93EC018B819C8110
:10160000892B29F08881998189238F3F29F4DF91E3
:10161000CF911F910F910895CE010E941E02882341
:10162000B1F3688179818A810E940A118C010E943C
:1016300064100E94D50EB801CE01DF91CF911F91A9
:101640000F910C94AA080E9404120E9415120E9485
:10165000D7110E942E120E945D170E946C1690E016
:1016600080E00E94820690E080E00C9498060E9440
:10167000F3110C94230B0E94FE10282F892F8295C2
:101680008F70903C80F48A30B0F4843020F4823043
:1016900090F480E008958630E1F781E0203E88F004
:1016A000213FB9F70EC08C3011F08F3091F793FBCA
:1016B000882780F9089581E0203F39F018F4203E12
:1016C00040F70895243F29F7FCCF0895CF93DF9387
:1016D00000D000D00F92CDB7DEB70F900F900F90D3
:1016E0000F900F90DF91CF910895CF93DF9300D0AB
:1016F00000D000D0CDB7DEB726960FB6F894DEBF87
:101700000FBECDBFDF91CF9108951F93CF93DF938D
:10171000E091530116E0809154018E1304C0DF91D3
:10172000CF911F910895CE2FD0E01E9FF00111247C
:10173000EB5AFE4F40815181628173818481958192
:101740000E94750BFE013196E770E5CF409185014F
:101750005091860160918701709188018091890183
:1017600090918A010C94750B1F93CF93DF93809116
:101770008A01807FC1F4809187018823A1F0809144
:101780005301C0915401609185017091860140918F
:10179000880150918901D62FD723DA01A095B09501
:1017A00016E0C81304C0DF91CF911F91089590E017
:1017B0004115510511F0DF3F31F401968770F1CFEB
:1017C0002A0F3B1F17C0189FF001199FF00D11241D
:1017D000EB5AFE4F21812713F0CF20812613EDCF46
:1017E00022812111EACF238134812417350740F368
:1017F000241B350B283C310500F720918A012F70FE
:10180000206120938A0126E0289FF001299FF00D96
:101810001124E65AFE4F80818F708061808385E8B5
:1018200091E00E94F90ADF91CF911F910C94850BF2
:101830009F92AF92BF92CF92DF92EF92FF920F935F
:101840001F93CF93DF93CDB7DEB72B970FB6F894E6
:10185000DEBF0FBECDBF8C0185E0F801DE0117961B
:1018600001900D928A95E1F7D8014C9111965C9107
:1018700011971296EC9012978091880190918901AE
:10188000009709F46BC12091850130918601632F87
:1018900062236F3F09F462C11396CD90DC90909063
:1018A0008701992009F4F8C0C816D90608F43FC08A
:1018B000F601E81BF90BCF01FF24F394883C910556
:1018C00008F0F12C85E8A82E81E0B82E80918A01DD
:1018D000982F907FFF2009F4B7C0911180C0FE2C93
:1018E00035132AC0241328C0E11026C08F708061F0
:1018F00080938A010E94A60BC5010E94F90A80917B
:101900008A01D80115968C938F2D2B960FB6F894DB
:10191000DEBF0FBECDBFDF91CF911F910F91FF9022
:10192000EF90DF90CF90BF90AF909F9008958095FB
:1019300090958C0D9D1DC0CFCD2829F0842F852337
:101940008F3F09F019C180E0B82FB170DB2EE09114
:1019500053012091540136E080FD1CC0EE20A1F21D
:1019600080918A01816080938A01F12CCDCF8E2FE6
:1019700090E03E9FF0011124EB5AFE4F6181651308
:1019800006C06081641303C062816E11E7CFFC0161
:101990003196E770E213EBCF4F8358878F8198859C
:1019A0000E94FE10292F22952F70903260F0225F46
:1019B0002F70223078F49F7051F0F8019581907F5C
:1019C00031F4D12C0AC09F7011F08823D1F3805ECE
:1019D0008830B8F3C8010E94F90AFD2C95CF351361
:1019E00006C0241304C0D801EE2009F47BC04F8345
:1019F00058878F8198850E943B0B882309F4B8C0D3
:101A0000EE2009F4B5C080918A01803270F02091F7
:101A10008501309186013A8329831B82DD82CC8245
:101A20008E83CE0101960E94F90A86E0F801A5E8AE
:101A3000B1E001900D928A95E1F70E94B40B0E94EB
:101A4000A60BFF24F39460CF911113C07C2DDB868D
:101A5000CA866E2D8B850E94660B85E891E00E94F8
:101A6000F90A86E0F50111928A95E9F70E94A60B22
:101A70004BCF3513BCCF2413BACFE110B8CFD80168
:101A800015968C93C8010E94F90A86E0F50111921F
:101A90008A95E9F7F92C38CFC816D90688F1B6012E
:101AA000681B790BCB01F12C883C910508F047C0ED
:101AB000FE2CEE2009F45CC0351330C024132EC078
:101AC00080918A0180FD21C0982F907FF1F0D8018C
:101AD00015968C931597903F39F0982F907F905FD3
:101AE0008F70892B15968C93C8010E94F90A86E0A5
:101AF000F801A5E8B1E001900D928A95E1F7B6CF23
:101B0000809590958C0D9D1DCECF86E0F801A5E8BF
:101B1000B1E001900D928A95E1F7F6CE4F83588798
:101B20008F8198850E943B0B81117FCF80918A0124
:101B3000816080938A01C8010E94F90AE5CE7C2D5C
:101B4000DB86CA866E2D8B850E94660B86E0E5E8F3
:101B5000F1E0DF011D928A95E9F788CFEE2041F090
:101B60004F8358878F8198850E943B0B81115DCFF1
:101B7000C8010E94F90A65CF81E08E25E5CE1F934A
:101B8000CF93DF93CDB7DEB72C970FB6F894DEBFB7
:101B90000FBECDBF4F83588769877A878B879C8715
:101BA000CE0107960E94180C882369F08A859B85D0
:101BB000892B39F04F815885842F85238F3F09F079
:101BC00071C016E05FC086E0FE013796DE01119617
:101BD00001900D928A95E1F78A859B85892B89F37F
:101BE00088859F8189238F3F61F32091540130E0E4
:101BF000C90101968770992740915301481719062A
:101C000071F40E94370B109254011092530186E038
:101C1000E5E8F1E0DF011D928A95E9F7D2CF96E081
:101C2000929FD001939FB00D1124AB5ABE4FFE017D
:101C3000319601900D929A95E1F7809354010E949C
:101C4000850BBFCF819FC00111248B5A9E4F0E94EC
:101C5000180C8823E9F0E09153011E9FF001112434
:101C6000EB5AFE4F4081518162817381848195815D
:101C70000E94750B8091530190E00196877099271F
:101C80008093530180915301909154018913DACFCD
:101C90002C960FB6F894DEBF0FBECDBFDF91CF916B
:101CA0001F91089569857A858B859C850E94750BA7
:101CB00088CFEF92FF920F931F93CF93DF938C0106
:101CC000892B89F0F12CEE24E394E8012196F801A8
:101CD0008491843709F457C0A0F4823009F43EC0DF
:101CE00048F48130D1F0DF91CF911F910F91FF9097
:101CF000EF9008959CEF980F9037A8F70E94710716
:101D00000AC0853709F44CC09CE7980F903758F704
:101D10008F770E944D088E0116C00E5F1F4FFE0187
:101D2000849190E2980F983060F48770FE2D01C086
:101D3000FF0F8A95EAF78F2F0E9407120E942E123A
:101D400002C00E9471078F2D815008F4BECFEFE9C9
:101D5000FFE03197F1F700C00000F6CF0E5F1F4F94
:101D6000FE01849190E2980F983050F48770FE2D18
:101D700001C0FF0F8A95EAF78F2F0E940D12DECF68
:101D80000E944D08E0CF0E5F1F4FFE01C491C1506D
:101D9000D0F28FE99FE00197F1F700C00000F7CF84
:101DA0000E5F1F4FFE01F490CECF0895609399010E
:101DB00070939A0180939B0190939C010C94230B48
:101DC000CF93DF9300D000D0CDB7DEB769837A839D
:101DD0008B839C838091990190919A01A0919B01A2
:101DE000B0919C0129813A814B815C81822B932B9C
:101DF000A42BB52B8093990190939A01A0939B01FA
:101E0000B0939C010F900F900F900F90DF91CF91A6
:101E10000C94230BCF93DF9300D000D0CDB7DEB767
:101E200069837A838B839C838091990190919A0135
:101E3000A0919B01B0919C0129813A814B815C81E9
:101E400082239323A423B5238093990190939A012D
:101E5000A0939B01B0939C010F900F900F900F9057
:101E6000DF91CF910C94230BCF93DF9300D000D060
:101E7000CDB7DEB769837A838B839C838091990188
:101E800090919A01A0919B01B0919C0129813A8186
:101E90004B815C8182279327A427B52780939901E2
:101EA00090939A01A0939B01B0939C010F900F9087
:101EB0000F900F90DF91CF910C94230B109295010E
:101EC0001092960110929701109298010C94230B96
:101ED00041E050E060E070E004C0440F551F661F11
:101EE000771F8A95D2F7409395015093960160939E
:101EF0009701709398010C94230B282F81E090E0B8
:101F0000A0E0B0E004C0880F991FAA1FBB1F2A954C
:101F1000D2F740919501509196016091970170918F
:101F20009801842B952BA62BB72B8093950190932A
:101F30009601A0939701B09398010C94230B41E074
:101F400050E060E070E004C0440F551F661F771F2B
:101F50008A95D2F74095509560957095809195013E
:101F600090919601A0919701B091980184239523B7
:101F7000A623B7238093950190939601A093970190
:101F8000B09398010C94230B282F81E090E0A0E0FF
:101F9000B0E004C0880F991FAA1FBB1F2A95D2F773
:101FA000409195015091960160919701709198012F
:101FB00084279527A627B7278093950190939601AC
:101FC000A0939701B09398010C94230BCF93DF93C8
:101FD00000D000D0CDB7DEB769837A838B839C8332
:101FE0008091950190919601A0919701B0919801EF
:101FF00029813A814B815C81822B932BA42BB52BB9
:102000008093950190939601A0939701B0939801C6
:102010000F900F900F900F90DF91CF910C94230BA6
:10202000CF93DF9300D000D0CDB7DEB769837A833A
:102030008B839C838091950190919601A09197014B
:10204000B091980129813A814B815C81822393234D
:10205000A423B5238093950190939601A0939701B3
:10206000B09398010F900F900F900F90DF91CF9148
:102070000C94230BCF93DF9300D000D0CDB7DEB705
:1020800069837A838B839C838091950190919601DB
:10209000A0919701B091980129813A814B815C818F
:1020A00082279327A427B5278093950190939601C3
:1020B000A0939701B09398010F900F900F900F90FD
:1020C000DF91CF910C94230B0895E82F29E0929F84
:1020D000E00D11248E2F877041E001C0440F8A95D6
:1020E000EAF7E695E695E69585E0E89FF00111248C
:1020F000E557FE4F30E020E070E05191DF0111978D
:10210000CB01022E02C0969587950A94E2F7817062
:1021100081958527842385278C932F5F3F4F25301A
:10212000310559F70895E82F29E0929FE00D112419
:102130009E2F9770E695E695E69585E0E89FF0017D
:102140001124E557FE4F50E040E080E0219130E05F
:10215000092E02C0369527950A94E2F7217033279D
:10216000042E01C0220F0A94EAF7822B4F5F5F4FC3
:102170004530510559F70895BF92CF92DF92EF9203
:10218000FF920F931F93CF93DF938C01C090950123
:10219000D0909601E0909701F0909801809199017C
:1021A00090919A01A0919B01B0919C01C82AD92AD3
:1021B000EA2AFB2ACFE1D0E0BC2ED701C6010C2EC3
:1021C00004C0B695A795979587950A94D2F780FD98
:1021D0000EC0219788F7B12C8B2DDF91CF911F91E5
:1021E0000F91FF90EF90DF90CF90BF900895B801CE
:1021F0008C2F0E947403019761F3EECFCF93DF938E
:10220000D82FC92F0E94BC106D2F7C2FDF91CF914A
:102210000C9474031F93CF93DF93162FD72F9091B5
:102220005201992339F0862F972FDF91CF911F917B
:102230000C94FE10882391F0862F972F0E94BC10DB
:10224000C82F682F812F9D2F0E946510612F7D2F31
:102250008C2FDF91CF911F910C947403862F972FB1
:102260000E949310C82FF2CF80919D01859585958E
:102270008595089580919D018770089598E0899FC4
:1022800090011124622B60939D010C947D0F90911D
:102290009D018095892380939D01282F277061F4EB
:1022A000282F082E000C330B9217130629F0859562
:1022B000859585950C949F0F089590919D01977039
:1022C00081E009F480E00895909112019923E1F0F2
:1022D0009091F30197FF18C0E82FE695E695E695F3
:1022E000EF3139F12091000130910101E20FF32F1C
:1022F000F11D877021E030E001C0220F8A95EAF7D6
:102300008181822B81830895209100013091010108
:10231000F90132969FEF40E05191851751F09F3FB0
:1023200019F4511101C0942F4F5F4E31A9F79F3F0F
:1023300009F40895290F311D97FD3A95F90182831B
:10234000089590911201992301F19091F30197FF63
:102350001CC0E82FE695E695E695EF3139F120911E
:10236000000130910101E20FF32FF11D877021E090
:1023700030E0A90102C0440F551F8A95E2F7CA0157
:102380008095918189238183089520910001309166
:102390000101F9013296205E3F4F9191891303C0EC
:1023A000DF0111971C92E217F307B9F7089581E056
:1023B00090E0E0910001F0910101E80FF91F108217
:1023C000019680329105A9F708959091C101982B4B
:1023D0009093C1010895982F90958091C101892310
:1023E0008093C10108951092C10108959091C00198
:1023F000982B9093C0010895982F90958091C001DB
:1024000089238093C00108951092C001089590918E
:10241000BF01982B9093BF010895982F90958091BC
:10242000BF0189238093BF0108951092BF010895D1
:1024300080939E01089510929E01089520910001BD
:1024400030910101F9013196205E3F4F80E091917A
:1024500091118F5FE217F307D1F70895E091000122
:10246000F09101018091C1018083E0910001F09120
:10247000010180819091C001892B8083E09100014E
:10248000F091010180819091BF01892B808390910F
:102490009E01992361F0E0910001F091010180819A
:1024A000892B80830E941E12811110929E018091BF
:1024B0000001909101010C946C066DEE7EEF90E0AE
:1024C00080E00E94C81F60E082E090E00E94B61F9A
:1024D00060E083E090E00E94B61F60E084E090E05E
:1024E0000E94B61F60E085E090E00C94B61F90E07B
:1024F00080E00E94B01F9C0181E02D3E3E4F09F01C
:1025000080E0089582E090E00C94A81F682F82E09C
:1025100090E00C94B61F83E090E00C94A81F682F05
:1025200083E090E00C94B61F84E090E00C94A81F28
:10253000682F84E090E00C94B61F8091F9018430FC
:1025400039F11092C30188E190E020E40FB6F894CD
:10255000A895809360000FBE2093600080E00E94E9
:10256000530383B7817F846083BF83B7816083BF58
:102570007894889583B78E7F83BF0FB6F894A8951B
:1025800080916000886180936000109260000FBEAF
:102590000895089508950E94C9120E94E6050E94B8
:1025A000CA1280E00E9451069C0181E0232B09F4AD
:1025B00080E008950E94370B0E9460060C9453033C
:1025C0001F921FB61F9211248F939F93AF93BF93B7
:1025D0008091C301811113C08091EF019091F001AE
:1025E000A091F101B091F2014196A11DB11D80931E
:1025F000EF019093F001A093F101B093F201BF912C
:10260000AF919F918F911F901FBE1F90189582E0F0
:1026100084BD93E095BD9AEF97BD80936E000895B9
:102620002FB7F8948091EF019091F001A091F10102
:10263000B091F2012FBF0895CF92DF92EF92FF92F7
:102640009C014FB7F8948091EF019091F001A09117
:10265000F101B091F2014FBF6C017D01EE24FF2426
:10266000A90170E060E0C416D506E606F70638F06A
:10267000821B930BFF90EF90DF90CF90089501970E
:10268000F7CF1F921FB61F9211248F939F93AF9382
:10269000BF938091EF019091F001A091F101B09171
:1026A000F2010196A11DB11D8093EF019093F001FD
:1026B000A093F101B093F201BF91AF919F918F91DF
:1026C0001F901FBE1F9018950E94511BF8942FEF6A
:1026D00087EA91E6215080409040E1F700C0000079
:1026E00087E090EBDC018093020290930302A093B9
:1026F0000402B093050288E19CE00FB6F894A89517
:10270000809360000FBE90936000FFCFCF92DF9266
:10271000EF92FF920F931F93CF93DF93082F80E0E8
:102720000E9451067C01D0E0C0E0CC24C394D12C9F
:1027300010E0C6010C2E02C0880F991F0A94E2F720
:102740008E219F21892B91F06C2F70E080E00E94F8
:1027500056030817190751F481E0DF91CF911F91BB
:102760000F91FF90EF90DF90CF9008952196C930A0
:10277000D105F9F680E0F1CFCF93C82F8CE20E940B
:102780008613882321F08C2FCF910C94861380E040
:10279000CF910895CF93DF9300D000D0CDB7DEB7AF
:1027A0000E947712811102C00E945D1295E6998302
:1027B00008C00E94E6058FE39CE90197F1F700C08D
:1027C0000000A981A150A983A111F3CF89E20E9441
:1027D000BC13811110C18AE20E94BC1381110E94B6
:1027E0005D1285E00E94BC1381110E9464130E9457
:1027F00082128093C20187E00E94BC13882371F08B
:102800008BE10E94BC13882309F4D1C09091C201CE
:10281000892F8D7F91FF82608093C2018091C201D8
:102820000E9486120E94941290E09093F40180938B
:10283000F30180EE0E94BC13882341F09091F301D4
:10284000892F8E7F90FF81608093F30189E30E943E
:10285000BC13882341F09091F301892F8D7F91FF64
:1028600082608093F30182EE0E94BC13882341F0C2
:102870009091F301892F8B7F92FF84608093F30105
:1028800086EE0E94BC13882341F09091F301892FBA
:10289000877F93FF88608093F30183EE0E94BC13CF
:1028A000882341F09091F301892F8F7E94FF8061FE
:1028B0008093F30185E30E94BC13882341F090913B
:1028C000F301892F8F7D95FF80628093F30181E36F
:1028D0000E94BC13882341F09091F301892F8F7BD4
:1028E00096FF80648093F30181E10E94BC138823EA
:1028F00041F09091F301892F97FB87F980588093DD
:10290000F3018091F3010E94981287E20E94BC13A8
:1029100089838EE10E94BC13882319F0B981B260CB
:10292000B9838FE10E94BC13882319F029812460A8
:10293000298380E20E94BC13882319F03981386012
:10294000398381E20E94BC13882319F049814061D8
:10295000498382E20E94BC13882319F05981506296
:10296000598383E20E94BC13882319F08981806413
:10297000898384E20E94BC138823B1F19981906815
:10298000998389810E948F123981232F30E050E092
:1029900040E029833A834B835C83CA01B9010F90DD
:1029A0000F900F900F90DF91CF910C94D60E8EE088
:1029B0000E94BC13882339F09091C201892F8B7F2C
:1029C00092FF846029CF80E10E94BC139091C201E4
:1029D000882329F0892F877F93FF88601DCF892F57
:1029E0008E7F90FF816018CFA981A111CACF0E946C
:1029F0008B12282FCBCF0F900F900F900F90DF915D
:102A0000CF9108958091C60180FF12C060910501A9
:102A100085E0689FB0011124759567957595679558
:102A200060387105A8F561157105A1F1862F08952B
:102A300081FF09C06091050185E0689FB001112404
:102A400075956795EDCF6091050182FD0AC0809173
:102A5000C7018823D1F09091040160910501891785
:102A600028F085E0689FB0011124DACF869FB0017D
:102A7000112485E0869F9001879F300D1124692FD6
:102A800070E0C9010E947A1FCBCF65E070E0CECF25
:102A90008FE7089581E008958091C60180FF0CC002
:102AA0006091030170E0759567957595679561155F
:102AB000710549F1862F089581FF06C060910301D9
:102AC00070E075956795F3CF6091030182FD0BC0AF
:102AD0009091C7019923A1F06091020180910301B7
:102AE000961738F0682F70E06038710500F38FE7B3
:102AF0000895899FC001112470E00E947A1FF4CFCD
:102B000061E070E0D7CF81E00895803F31F40E940A
:102B1000021581958093CA010895813F19F40E949E
:102B20000215F8CF823F31F40E94021581958093FF
:102B3000C9010895833F19F40E940215F8CF893F17
:102B400029F40E944C158093CB0108958A3F21F40B
:102B50000E944C158195F7CF8B3F31F40E944C15A4
:102B600081958093CC0108958C3F19F40E944C15F7
:102B7000F8CF843F31F48091C80181608093C8010F
:102B80000895853F21F48091C8018260F7CF863F88
:102B900021F48091C8018460F1CF873F21F48091B6
:102BA000C8018860EBCF883F21F48091C801806123
:102BB000E5CF8D3F31F48091C60181608093C601DD
:102BC00008958E3F21F48091C6018260F7CF8F3F38
:102BD000B9F78091C6018460F1CF9091C901803F1F
:102BE00041F48091CA0187FD1092CA01992371F0C6
:102BF0000895813F29F48091CA011816ACF3F6CFED
:102C0000823F81F497FFF2CF1092C9018091CA01EF
:102C10009091CB01892B9091CC01892B49F710928F
:102C2000C7010895833F19F4191674F3DFCF893F64
:102C300039F48091CB011816CCF61092CB01D6CF87
:102C40008A3F29F48091CB0187FFD0CFF6CF8B3F0D
:102C500039F48091CC0187FFC9CF1092CC01C6CF47
:102C60008C3F29F48091CC011816BCF3BFCF843F70
:102C700031F48091C8018E7F8093C801B7CF853F22
:102C800021F48091C8018D7FF7CF863F21F4809198
:102C9000C8018B7FF1CF873F21F48091C801877FE6
:102CA000EBCF883F21F48091C8018F7EE5CF8D3F27
:102CB00031F48091C6018E7F8093C60197CF8E3FFD
:102CC00021F48091C6018D7FF7CF8F3F09F08ECF21
:102CD0008091C6018B7FF0CF88EC91E00E9477064F
:102CE0000E9410139093C5018093C40108951F930F
:102CF000CF93DF9300D000D000D0CDB7DEB7809166
:102D0000C4019091C5010E941C13AC018091C701C0
:102D10002091060130E0811106C0209107019AE060
:102D2000299F900111244217530788F02091C9016F
:102D3000A091CA01A9831091CB01B091CC01BE83AF
:102D400021110FC09A2F912B9B2B09F0B2C0269610
:102D50000FB6F894DEBF0FBECDBFDF91CF911F91AC
:102D600008958F3F19F08F5F8093C701121624F4E6
:102D70000E9402158093C9018091C90187FF05C097
:102D80000E94021581958093C9012981121624F4AD
:102D90000E9402158093CA018091CA0187FF05C075
:102DA0000E94021581958093CA018091C9018823F0
:102DB00009F455C03091CA013D83332309F44FC053
:102DC000282F880F330B440B550B29833A834B83F1
:102DD0005C83CA01B9010E94811E23E333E343E30C
:102DE0005FE369837A838B839C8369817A818B819A
:102DF0009C810E94E51E69837A838B839C83698111
:102E00007A818B819C810E94491E6093C9018D81CA
:102E1000082E000C990BAA0BBB0B89839A83AB83FA
:102E2000BC83BC01CD010E94811E23E333E343E355
:102E30005FE369837A838B839C8369817A818B8149
:102E40009C810E94E51E69837A838B839C836981C0
:102E50007A818B819C810E94491E6093CA01111660
:102E600024F40E944C158093CB018091CB0187FF05
:102E700005C00E944C1581958093CB019E81191647
:102E800024F40E944C158093CC018091CC0187FFE3
:102E900005C00E944C1581958093CC0126960FB6F3
:102EA000F894DEBF0FBECDBFDF91CF911F910C9480
:102EB0006C168F3F09F057CF68CF85E0E8ECF1E062
:102EC000DF011D928A95E9F71092C7011092C601A1
:102ED00008958091ED010895CF93DF9300D00F9274
:102EE000CDB7DEB72091F901243019F523E029830D
:102EF0008A839B832093E9008FEF9091E8008150B3
:102F000095FD06C095ED9A95F1F700008111F5CF7A
:102F10008091E80085FF0DC050E040E063E070E084
:102F2000CE0101960E94C9198091E8008E778093A6
:102F3000E8000F900F900F90DF91CF910895CF93FD
:102F4000DF9300D00F92CDB7DEB79C018091F901DD
:102F5000843031F582E08983205831093B832A830C
:102F600083E08093E9008FEF9091E800815095FD18
:102F700006C095ED9A95F1F700008111F5CF80918B
:102F8000E80085FF0DC050E040E063E070E0CE0156
:102F900001960E94C9198091E8008E778093E8001D
:102FA0000F900F900F90DF91CF9108952091F9012C
:102FB0002430F1F422E02093E9002FEF3091E80073
:102FC000215035FD06C035ED3A95F1F7000021118D
:102FD000F5CF2091E80025FF0BC050E040E065E010
:102FE00070E00E94C9198091E8008E778093E80014
:102FF0000895CF93DF93D82FC92F8091F9018430A2
:10300000F1F4909112019923E9F09091F30197FF67
:1030100019C08093E9008FEF9091E800815095FDF1
:1030200006C095E19A95F1F700008111F5CF8091E6
:10303000E80050E040E060E270E085FD1AC0DF91FA
:10304000CF91089581E08093E9008FEF9091E8009F
:10305000815095FD06C095ED9A95F1F7000081111C
:10306000F5CF8091E80085FFEACF50E040E068E0CE
:1030700070E08D2F9C2F0E94C9198091E8008E77F7
:103080008093E80080E2ED2FFC2FADECB1E00190E1
:103090000D928A95E1F7D3CF8091F801811109C093
:1030A0000E94511B0E94AE1B8091E20084608093BD
:1030B000E20008951092F8010895089508950C947F
:1030C000DA1242E061EC81E00E94CD1A42E061EC4C
:1030D00082E00E94CD1A42E061EC83E00E94CD1AAA
:1030E00042E261EC84E00C94CD1A8091FB018930BE
:1030F00089F148F4823009F494C0833009F44FC058
:10310000813041F008958A3009F47BC08B3009F496
:1031100061C008958091FA01813A09F03FC0809121
:10312000E800877F8093E8008091FE019091FF0185
:10313000892B61F460E28DEC91E070E00E94181A36
:103140008091E8008B778093E800089560E090E03C
:1031500080E0F3CF8091FA01813201F58091FE0188
:103160009091FF01009711F00397C1F48091E8005E
:10317000877F8093E8008091E80082FF0BC08091F8
:10318000F1008093ED018091E8008B778093E80057
:103190000C94011B8091F9018111EDCF089580916C
:1031A000FA01813AD9F78091FE019091FF01892BB4
:1031B000A9F78091E800877F8093E8008091E8007C
:1031C00080FFFCCF809112018093F1008091E80094
:1031D0008E77DCCF8091FA01813201F78091FE0178
:1031E0009091FF01892BD1F68091E800877F809331
:1031F000E8000E94011B8091FC01809312010C9455
:10320000370B8091FA01813249F68091E800877F7F
:103210008093E8000E94011B8091FD018093EE01E4
:1032200008958091FA01813A09F0B8CF8091E800C1
:10323000877F8093E8008091E80080FFFCCF809139
:10324000EE01C2CF84B7877F84BF0FB6F894A895EC
:1032500080916000886180936000109260000FBED2
:1032600080E880936100109261000E94AF060E9486
:10327000511B0E94AE1B8091E20084608093E200AB
:1032800078940E942E1E0E94B10688E091E00E9470
:103290005B068091F901853019F00E94B706F9CFDD
:1032A0000E949D128091F701882399F30E94CB120E
:1032B000882379F30E94B319ECCF9C01DA01892F9E
:1032C000992783309105C1F068F48130910509F4A4
:1032D00045C0029761F48DE690E02CEF31E02D932C
:1032E0003C93089581329105E1F0829739F190E0A5
:1032F00080E030E020E0F3CFC9019927213059F078
:103300008230910559F0E8EFF1E0892B81F7849143
:1033100090E09F01E4CFE0EEF1E0F9CFECECF1E0DA
:10332000F6CF643020F7E62FF0E0EE0FFF1FE85DE8
:10333000FE4F2081318189E090E0D1CF6430B8F632
:1033400070E0FB01EE0FFF1FE05EFE4F2081318138
:10335000645E7E4FFB01808190E0C1CF82E190E00E
:1033600029E632E0BCCF80E189BD82E189BD09B4A4
:1033700000FEFDCF8091D8008F7D8093D800809192
:10338000E00082608093E0008091E00081FDFCCF4E
:103390000895AF92BF92CF92DF92FF920F931F9347
:1033A000CF93DF936C01EB018A010E94201BF82E62
:1033B000811123C00115110539F0F8018081918137
:1033C000C81BD90BC80ED91EB12CA12C2097A9F06F
:1033D0008091E80085FD22C08091E8008E7780937F
:1033E000E80001151105A1F0F80180819181A80E76
:1033F000B91EB182A08285E0F82E8F2DDF91CF918A
:103400001F910F91FF90DF90CF90BF90AF900895E4
:103410000E94201B8823D1F2F82EEFCFF601819174
:103420006F018093F1002197FFEFAF1ABF0ACECF53
:10343000FC01CB01209100023091010226173707D1
:1034400090F0009729F42091E8002E772093E8006F
:1034500040E0009751F4411108C08091E80082FFDC
:1034600031C080E00895C901F3CF2091F9012223F2
:10347000A9F12530A9F12091E80023FD2DC020916C
:10348000E80022FDEACF2091E80020FFE2CF309152
:10349000F3002091F200009719F02830310558F020
:1034A00041E02830310509F040E02091E8002E7716
:1034B0002093E800CECF41914093F10001972F5F18
:1034C0003F4FE9CF8091F901882341F0853041F0E9
:1034D0008091E80083FFC1CF81E0089582E00895E4
:1034E00083E00895FC01CB0120910002309101029C
:1034F0002617370790F0009729F42091E8002E77DF
:103500002093E80040E0009751F4411108C08091F9
:10351000E80082FF32C080E00895C901F3CF209116
:10352000F9012223B1F12530B1F12091E80023FD0A
:103530002EC02091E80022FDEACF2091E80020FF74
:10354000E2CF3091F3002091F200009719F028307B
:10355000310558F041E02830310509F040E0209174
:10356000E8002E772093E800CECF44914093F100FD
:10357000319601972F5F3F4FE8CF8091F901882363
:1035800041F0853041F08091E80083FFC0CF81E0B9
:10359000089582E0089583E00895982F973028F0E9
:1035A0008F708093E90081E008959093E900242FC3
:1035B000762F50E0981731F07091EC002091ED00DB
:1035C0005091F00021FD02C09F5FE8CF3091EB00E9
:1035D0003E7F3093EB003091ED003D7F3093ED0066
:1035E0003091EB0031603093EB007093EC0020934E
:1035F000ED005093F0002091EE0027FDE5CF80E034
:1036000008958091FA0187FF13C08091E80082FF3E
:1036100006C08091E8008B778093E80004C0809119
:10362000F9018111F2CF08958091F9018823D9F32E
:103630008091E80080FFF8CF8091E8008E77ECCF92
:103640002091E4003091E50095E6A9012091EC007D
:10365000822F817020FF06C08091E80080FF06C0A5
:1036600080E008952091E80022FD1AC08091F901C0
:10367000882389F0853089F08091EB0085FD0FC0AB
:103680002091E4003091E50042175307F9F2915080
:10369000E1F684E0089582E0089583E0089581E0F2
:1036A00008950E94BF1B0E94C71BE0EEF0E08081DE
:1036B00081608083E8EDF0E080818F77808319BCA2
:1036C000A7EDB0E08C918E7F8C9380818F7E80837C
:1036D0001092F80108950F931F93CF93DF930E94E8
:1036E000BF1B0E94C71BC8EDD0E088818F778883FD
:1036F00088818068888388818F7D888319BC109237
:10370000F9011092F5011092F7011092F60100EE06
:1037100010E0F80180818B7F8083888181608883BD
:1037200042E060E080E00E94CD1AE1EEF0E08081AE
:103730008E7F8083E2EEF0E08081816080838081F3
:1037400088608083F80180818E7F8083888180619A
:103750008883DF91CF911F910F910895E8EDF0E0FC
:1037600080818F7E8083E7EDF0E0808181608083BF
:1037700084E082BF81E08093F8010C946B1BE8ED3C
:10378000F0E080818E7F80831092E2000895109295
:10379000DA001092E10008951F920F920FB60F9277
:1037A00011242F933F934F935F936F937F938F9346
:1037B0009F93AF93BF93EF93FF938091E10082FFBC
:1037C0000BC08091E20082FF07C08091E1008B7FF7
:1037D0008093E1000E942D1E8091DA0080FF19C0C5
:1037E0008091D80080FF15C08091DA008E7F809391
:1037F000DA008091D90080FF94C080E189BD82E128
:1038000089BD09B400FEFDCF81E08093F9010E94DB
:103810004C188091E10080FF19C08091E20080FF88
:1038200015C08091E2008E7F8093E2008091E200DB
:1038300080618093E2008091D80080628093D800FC
:1038400019BC85E08093F9010E945E188091E10027
:1038500084FF29C08091E20084FF25C080E189BDFA
:1038600082E189BD09B400FEFDCF8091D8008F7D33
:103870008093D8008091E1008F7E8093E100809159
:10388000E2008F7E8093E2008091E200816080936D
:10389000E2008091F501882309F449C084E0809317
:1038A000F9010E945F188091E10083FF29C0809197
:1038B000E20083FF25C08091E100877F8093E100D3
:1038C00082E08093F9011092F5018091E1008E7FF2
:1038D0008093E1008091E2008E7F8093E2008091EE
:1038E000E20080618093E20042E060E080E00E94BC
:1038F000CD1A8091F00088608093F0000E945D18DE
:10390000FF91EF91BF91AF919F918F917F916F91B7
:103910005F914F913F912F910F900FBE0F901F908D
:10392000189519BC1092F9010E945A1872CF809113
:10393000E30087FD02C081E0B2CF83E0B0CF1F92E9
:103940000F920FB60F9211242F933F934F935F93D3
:103950006F937F938F939F93AF93BF93CF93DF9397
:10396000EF93FF93D091E900DF708091EC00C82FB6
:10397000C17080FDC0E81092E9008091F000877F5F
:103980008093F00078940E94E31C1092E9008091EB
:10399000F00088608093F000CD2BCF70C093E900D9
:1039A000FF91EF91DF91CF91BF91AF919F918F9157
:1039B0007F916F915F914F913F912F910F900FBE2B
:1039C0000F901F9018951F93CF93DF93CDB7DEB75D
:1039D000AA970FB6F894DEBF0FBECDBF8AEF91E075
:1039E000FC0101962091F100208322E082309207B1
:1039F000B9F70E9475188091E80083FF16C1809185
:103A0000FA019091FB019A3008F00FC1E92FF0E024
:103A1000EE5FFF4D0C948E1F803881F0823809F0E4
:103A200004C18091FE018F708093E9008091EB00CA
:103A300085FB882780F91092E90006C08091F60185
:103A40009091F701911182609091E800977F909397
:103A5000E8008093F1001092F1008091E8008E77E9
:103A6000E0C0882309F4CEC0823009F0DEC0809126
:103A7000FC018111D1C08091FE018F7009F4D5C085
:103A80008093E9002091EB0020FFC6C0933031F411
:103A90008091EB0080628093EB00BEC09091EB00C0
:103AA00090619093EB0021E030E001C0220F8A95F5
:103AB000EAF72093EA001092EA008091EB00886018
:103AC000EACF8111B2C01091FC011F778091E30011
:103AD0008078812B8093E3008091E800877F80933A
:103AE000E8000E94011B8091E80080FFFCCF8091DC
:103AF000E30080688093E30082E0111183E080930B
:103B0000F90193C08058823008F08FC08091FC0189
:103B10009091FD018C3D23E09207A1F583E08A831B
:103B20008AE289834FB7F894DE01139620E03EE0E5
:103B300051E2E32FF0E050935700E49120FF03C0DF
:103B4000E295EF703F5FEF708E2F90E0EA30C0F0AB
:103B5000C7968D939D932F5F243159F74FBF809166
:103B6000E800877F8093E8006AE270E0CE0101966A
:103B70000E94181A8091E8008B778093E80055C066
:103B8000C096E7CFAE014F5F5F4F6091FE010E948C
:103B90005D19BC01892B09F448C08091E800877F3A
:103BA0008093E80089819A810E94721AE3CF80385D
:103BB000E1F58091E800877F8093E8008091F5012E
:103BC0008093F1004ACF811130C09091FC01923076
:103BD00060F58091E800877F8093E8009093F5017D
:103BE0000E94011B8091F501882311F084E005C03B
:103BF0008091E30087FDFACF81E08093F9010E9474
:103C0000611813C08091FC01813079F481E0933018
:103C100009F080E08093F7011092E9008091E800BC
:103C2000877F8093E8000E94011B8091E80083FF5A
:103C30000AC08091E800877F8093E8008091EB00C4
:103C400080628093EB00AA960FB6F894DEBF0FBE99
:103C5000CDBFDF91CF911F9108950895CF938091AB
:103C6000F9018823A1F0C091E900CF709091EC0098
:103C7000892F817090FD80E8C82B1092E900809117
:103C8000E80083FD0E94E31CCF70C093E900CF9150
:103C900008950E94501E6894B1110C94DF1E08957F
:103CA0000E94C41E88F09F5798F0B92F9927B751EA
:103CB000B0F0E1F0660F771F881F991F1AF0BA95D0
:103CC000C9F714C0B13091F00E94DE1EB1E0089532
:103CD0000C94DE1E672F782F8827B85F39F0B93F24
:103CE000CCF3869577956795B395D9F73EF4909583
:103CF0008095709561957F4F8F4F9F4F0895E89401
:103D000009C097FB3EF490958095709561957F4F23
:103D10008F4F9F4F9923A9F0F92F96E9BB279395D1
:103D2000F695879577956795B795F111F8CFFAF4E1
:103D3000BB0F11F460FF1BC06F5F7F4F8F4F9F4F12
:103D400016C0882311F096E911C0772321F09EE870
:103D5000872F762F05C0662371F096E8862F70E0D6
:103D600060E02AF09A95660F771F881FDAF7880FB0
:103D70009695879597F9089557FD9058440F551FCC
:103D800059F05F3F71F04795880F97FB991F61F0DD
:103D90009F3F79F087950895121613061406551F54
:103DA000F2CF4695F1DF08C0161617061806991FC0
:103DB000F1CF86957105610508940895E894BB27B5
:103DC00066277727CB0197F908950E94F81E0C9477
:103DD000691F0E945B1F38F00E94621F20F095232C
:103DE00011F00C94521F0C94581F11240C94DF1ED8
:103DF0000E94BC1E70F3959FC1F3950F50E0551FB4
:103E0000629FF001729FBB27F00DB11D639FAA272F
:103E1000F00DB11DAA1F649F6627B00DA11D661F7E
:103E2000829F2227B00DA11D621F739FB00DA11D9F
:103E3000621F839FA00D611D221F749F3327A00D59
:103E4000611D231F849F600D211D822F762F6A2FF5
:103E500011249F5750409AF0F1F088234AF0EE0F5A
:103E6000FF1FBB1F661F771F881F91505040A9F787
:103E70009E3F510580F00C94521F0C94DF1E5F3F53
:103E8000E4F3983ED4F3869577956795B795F795C3
:103E9000E7959F5FC1F7FE2B880F911D969587953B
:103EA00097F9089597F99F6780E870E060E00895BA
:103EB0009FEF80EC089500240A9416161706180642
:103EC0000906089500240A9412161306140605061E
:103ED0000895092E0394000C11F4882352F0BB0FAF
:103EE00040F4BF2B11F460FF04C06F5F7F4F8F4F12
:103EF0009F4F089597FB072E16F4009407D077FD87
:103F000009D00E94941F07FC05D03EF4909581953E
:103F10009F4F0895709561957F4F0895EE0FFF1F95
:103F20000590F491E02D0994AA1BBB1B51E107C039
:103F3000AA1FBB1FA617B70710F0A61BB70B881F39
:103F4000991F5A95A9F780959095BC01CD010895C8
:103F5000F999FECF92BD81BDF89A992780B5089551
:103F6000A8E1B0E042E050E00C94D01F262FF99970
:103F7000FECF92BD81BDF89A019700B4021639F0C8
:103F80001FBA20BD0FB6F894FA9AF99A0FBE089599
:103F90000196272F0E94B71F0C94B61FDC01CB019E
:103FA000FC01F999FECF06C0F2BDE1BDF89A319649
:103FB00000B40D9241505040B8F70895F894FFCFE7
:103FC000BE02CA02CE02D202D602DA02DE02E20249
:103FD000E602EA02EE02F202F602FA02FE02020330
:103FE00006030A03E208E2083A093A097E099A0937
:103FF00012091209A50912096D0A6D0AD80A1209D7
:104000001209E10A0C1D311D151E311D151E611D01
:08401000821D151ED71DE31DE2
:104018009F012808140A321E6917F917D6179F1727
:104028006C17019190946697C63435F5404D363932
:104038003703EA02B4027B020E0227024002590249
:00000001FF
