:02000000FD2BD6
:1006FE0083169F010730831299009F01A301A20167
:10070E00A401831605108515051105128512851491
:10071E00831285018518942B952BB22B1430A100D2
:10072E007930A000A00B992BA10B992B9E2B831235
:10073E008518A22BA32BB22B2408013EA000200863
:10074E00A4000B302402031CAD2BAE2BB22B0A30AF
:10075E00A0002008A4002403031DB62BB72BBD2B2D
:10076E00A201A20A0230A0002008A400851CC02B02
:10077E00C12BD02B1430A1007930A000A00BC52BBB
:10078E00A10BC52BCA2B8312851CCE2BCF2BD02BA6
:10079E00A4012203031DD42BD52BEF2B2308031DFD
:1007AE00D92BDA2BE02B051485160512A301A30A0B
:1007BE00E42B051085120512A3010D30A100FB30AC
:1007CE00A000A00BE82BA10BE82BED2B8312A201AE
:1007DE002303031DF32BF42BF82B0514851605129A
:1007EE00912B051085120512912B002883017F2B6A
:02400E009431EB
:00000001FF
